{
	"contractName": "CityCouncil",
	"abi": [
		{
			"inputs": [
				{
					"internalType": "address",
					"name": "landRegistryAddress",
					"type": "address"
				}
			],
			"stateMutability": "nonpayable",
			"type": "constructor"
		},
		{
			"anonymous": false,
			"inputs": [
				{
					"indexed": false,
					"internalType": "uint256",
					"name": "landId",
					"type": "uint256"
				},
				{
					"indexed": false,
					"internalType": "bool",
					"name": "verified",
					"type": "bool"
				}
			],
			"name": "LandVerified",
			"type": "event"
		},
		{
			"inputs": [],
			"name": "admin",
			"outputs": [
				{
					"internalType": "address",
					"name": "",
					"type": "address"
				}
			],
			"stateMutability": "view",
			"type": "function",
			"constant": true
		},
		{
			"inputs": [
				{
					"internalType": "uint256",
					"name": "landId",
					"type": "uint256"
				}
			],
			"name": "verifyLand",
			"outputs": [],
			"stateMutability": "nonpayable",
			"type": "function"
		}
	],
	"bytecode": "0x608060405234801561001057600080fd5b506040516105543803806105548339818101604052810190610032919061011c565b336000806101000a81548173ffffffffffffffffffffffffffffffffffffffff021916908373ffffffffffffffffffffffffffffffffffffffff16021790555080600160006101000a81548173ffffffffffffffffffffffffffffffffffffffff021916908373ffffffffffffffffffffffffffffffffffffffff16021790555050610149565b600080fd5b600073ffffffffffffffffffffffffffffffffffffffff82169050919050565b60006100e9826100be565b9050919050565b6100f9816100de565b811461010457600080fd5b50565b600081519050610116816100f0565b92915050565b600060208284031215610132576101316100b9565b5b600061014084828501610107565b91505092915050565b6103fc806101586000396000f3fe608060405234801561001057600080fd5b50600436106100365760003560e01c8063f851a4401461003b578063f9c43bdf14610059575b600080fd5b610043610075565b6040516100509190610232565b60405180910390f35b610073600480360381019061006e9190610288565b610099565b005b60008054906101000a900473ffffffffffffffffffffffffffffffffffffffff1681565b60008054906101000a900473ffffffffffffffffffffffffffffffffffffffff1673ffffffffffffffffffffffffffffffffffffffff163373ffffffffffffffffffffffffffffffffffffffff1614610127576040517f08c379a000000000000000000000000000000000000000000000000000000000815260040161011e90610338565b60405180910390fd5b600160009054906101000a900473ffffffffffffffffffffffffffffffffffffffff1673ffffffffffffffffffffffffffffffffffffffff1663f9c43bdf826040518263ffffffff1660e01b81526004016101829190610367565b600060405180830381600087803b15801561019c57600080fd5b505af11580156101b0573d6000803e3d6000fd5b505050507f844a797c747d332e0cacaf14bbcc3c6b2f03b904c69b7ded23f3115305a390898160016040516101e692919061039d565b60405180910390a150565b600073ffffffffffffffffffffffffffffffffffffffff82169050919050565b600061021c826101f1565b9050919050565b61022c81610211565b82525050565b60006020820190506102476000830184610223565b92915050565b600080fd5b6000819050919050565b61026581610252565b811461027057600080fd5b50565b6000813590506102828161025c565b92915050565b60006020828403121561029e5761029d61024d565b5b60006102ac84828501610273565b91505092915050565b600082825260208201905092915050565b7f4f6e6c792061646d696e2063616e20706572666f726d2074686973206163746960008201527f6f6e000000000000000000000000000000000000000000000000000000000000602082015250565b60006103226022836102b5565b915061032d826102c6565b604082019050919050565b6000602082019050818103600083015261035181610315565b9050919050565b61036181610252565b82525050565b600060208201905061037c6000830184610358565b92915050565b60008115159050919050565b61039781610382565b82525050565b60006040820190506103b26000830185610358565b6103bf602083018461038e565b939250505056fea264697066735822122099f4cb8a729662f29ad2d7e92cc601ebe8ceaf9b1b55d2c984d7ad88434fbcb164736f6c63430008130033",
	"immutableReferences": {},
	"source": "// SPDX-License-Identifier: MIT\r\npragma solidity ^0.8.0;\r\n\r\nimport \"./LandRegistry.sol\";\r\n\r\ncontract CityCouncil {\r\n    address public admin;\r\n    LandRegistry landRegistry;\r\n\r\n    event LandVerified(uint256 landId, bool verified);\r\n\r\n    modifier onlyAdmin() {\r\n        require(msg.sender == admin, \"Only admin can perform this action\");\r\n        _;\r\n    }\r\n\r\n    constructor(address landRegistryAddress) {\r\n        admin = msg.sender;\r\n        landRegistry = LandRegistry(landRegistryAddress);\r\n    }\r\n\r\n    function verifyLand(uint256 landId) public onlyAdmin {\r\n        landRegistry.verifyLand(landId);\r\n        emit LandVerified(landId, true);\r\n    }\r\n}\r\n",
	"sourcePath": "C:\\Users\\Jupiter\\land-registry\\contracts\\CityCouncil.sol",
	"compiler": {
		"name": "solc",
		"version": "0.8.19+commit.7dd6d404.Emscripten.clang"
	},
	"schemaVersion": "3.4.16",
	"updatedAt": "2024-06-05T18:41:38.445Z",
	"networkType": "ethereum",
	"devdoc": {
		"kind": "dev",
		"methods": {},
		"version": 1
	},
	"userdoc": {
		"kind": "user",
		"methods": {},
		"version": 1
	}
}