{
  "contractName": "DeedOfGrant",
  "abi": [
    {
      "inputs": [
        {
          "internalType": "address",
          "name": "_grantor",
          "type": "address"
        },
        {
          "internalType": "address",
          "name": "_grantee",
          "type": "address"
        },
        {
          "internalType": "uint256",
          "name": "_landId",
          "type": "uint256"
        }
      ],
      "stateMutability": "nonpayable",
      "type": "constructor"
    },
    {
      "anonymous": false,
      "inputs": [
        {
          "indexed": true,
          "internalType": "address",
          "name": "grantee",
          "type": "address"
        },
        {
          "indexed": false,
          "internalType": "uint256",
          "name": "landId",
          "type": "uint256"
        }
      ],
      "name": "DeedSigned",
      "type": "event"
    },
    {
      "inputs": [],
      "name": "grantee",
      "outputs": [
        {
          "internalType": "address",
          "name": "",
          "type": "address"
        }
      ],
      "stateMutability": "view",
      "type": "function",
      "constant": true
    },
    {
      "inputs": [],
      "name": "grantor",
      "outputs": [
        {
          "internalType": "address",
          "name": "",
          "type": "address"
        }
      ],
      "stateMutability": "view",
      "type": "function",
      "constant": true
    },
    {
      "inputs": [],
      "name": "landId",
      "outputs": [
        {
          "internalType": "uint256",
          "name": "",
          "type": "uint256"
        }
      ],
      "stateMutability": "view",
      "type": "function",
      "constant": true
    },
    {
      "inputs": [],
      "name": "signed",
      "outputs": [
        {
          "internalType": "bool",
          "name": "",
          "type": "bool"
        }
      ],
      "stateMutability": "view",
      "type": "function",
      "constant": true
    },
    {
      "inputs": [],
      "name": "signDeed",
      "outputs": [],
      "stateMutability": "nonpayable",
      "type": "function"
    }
  ],
  "bytecode": "0x608060405234801561001057600080fd5b506040516105d73803806105d783398181016040528101906100329190610176565b826000806101000a81548173ffffffffffffffffffffffffffffffffffffffff021916908373ffffffffffffffffffffffffffffffffffffffff16021790555081600160006101000a81548173ffffffffffffffffffffffffffffffffffffffff021916908373ffffffffffffffffffffffffffffffffffffffff160217905550806002819055506000600360006101000a81548160ff0219169083151502179055505050506101c9565b600080fd5b600073ffffffffffffffffffffffffffffffffffffffff82169050919050565b600061010d826100e2565b9050919050565b61011d81610102565b811461012857600080fd5b50565b60008151905061013a81610114565b92915050565b6000819050919050565b61015381610140565b811461015e57600080fd5b50565b6000815190506101708161014a565b92915050565b60008060006060848603121561018f5761018e6100dd565b5b600061019d8682870161012b565b93505060206101ae8682870161012b565b92505060406101bf86828701610161565b9150509250925092565b6103ff806101d86000396000f3fe608060405234801561001057600080fd5b50600436106100575760003560e01c8063232a6b9d1461005c578063bab253b31461007a578063c75f5f6414610098578063d5f52076146100a2578063e2a3798c146100c0575b600080fd5b6100646100de565b604051610071919061027b565b60405180910390f35b6100826100f1565b60405161008f91906102d7565b60405180910390f35b6100a0610115565b005b6100aa610234565b6040516100b791906102d7565b60405180910390f35b6100c861025a565b6040516100d5919061030b565b60405180910390f35b600360009054906101000a900460ff1681565b60008054906101000a900473ffffffffffffffffffffffffffffffffffffffff1681565b600160009054906101000a900473ffffffffffffffffffffffffffffffffffffffff1673ffffffffffffffffffffffffffffffffffffffff163373ffffffffffffffffffffffffffffffffffffffff16146101a5576040517f08c379a000000000000000000000000000000000000000000000000000000000815260040161019c906103a9565b60405180910390fd5b6001600360006101000a81548160ff021916908315150217905550600160009054906101000a900473ffffffffffffffffffffffffffffffffffffffff1673ffffffffffffffffffffffffffffffffffffffff167f7d7e60e446685e66af4f04bfc7a7a8e14126abfc4cc885fbd2bd71bd99f0193f60025460405161022a919061030b565b60405180910390a2565b600160009054906101000a900473ffffffffffffffffffffffffffffffffffffffff1681565b60025481565b60008115159050919050565b61027581610260565b82525050565b6000602082019050610290600083018461026c565b92915050565b600073ffffffffffffffffffffffffffffffffffffffff82169050919050565b60006102c182610296565b9050919050565b6102d1816102b6565b82525050565b60006020820190506102ec60008301846102c8565b92915050565b6000819050919050565b610305816102f2565b82525050565b600060208201905061032060008301846102fc565b92915050565b600082825260208201905092915050565b7f4f6e6c7920746865206772616e7465652063616e207369676e2074686520646560008201527f6564000000000000000000000000000000000000000000000000000000000000602082015250565b6000610393602283610326565b915061039e82610337565b604082019050919050565b600060208201905081810360008301526103c281610386565b905091905056fea264697066735822122066a37c2d1c024799ba693af8d9bec9a50e3a7772eeca3b4293997c6ca6626e5e64736f6c63430008130033",
  "immutableReferences": {},
  "source": "// SPDX-License-Identifier: MIT\r\npragma solidity ^0.8.0;\r\n\r\ncontract DeedOfGrant {\r\n    address public grantor;\r\n    address public grantee;\r\n    uint256 public landId;\r\n    bool public signed;\r\n\r\n    event DeedSigned(address indexed grantee, uint256 landId);\r\n\r\n    constructor(address _grantor, address _grantee, uint256 _landId) {\r\n        grantor = _grantor;\r\n        grantee = _grantee;\r\n        landId = _landId;\r\n        signed = false;\r\n    }\r\n\r\n    function signDeed() public {\r\n        require(msg.sender == grantee, \"Only the grantee can sign the deed\");\r\n        signed = true;\r\n        emit DeedSigned(grantee, landId);\r\n    }\r\n}\r\n",
  "sourcePath": "C:\\Users\\Jupiter\\land-registry\\contracts\\DeedOfGrant.sol",
  "compiler": {
    "name": "solc",
    "version": "0.8.19+commit.7dd6d404.Emscripten.clang"
  },
  "schemaVersion": "3.4.16",
  "updatedAt": "2024-06-05T18:41:38.451Z",
  "networkType": "ethereum",
  "devdoc": {
    "kind": "dev",
    "methods": {},
    "version": 1
  },
  "userdoc": {
    "kind": "user",
    "methods": {},
    "version": 1
  }
}