{
	"contractName": "LandRegistry",
	"abi": [
		{
			"anonymous": false,
			"inputs": [
				{
					"indexed": false,
					"internalType": "uint256",
					"name": "landId",
					"type": "uint256"
				},
				{
					"indexed": false,
					"internalType": "address",
					"name": "newOwner",
					"type": "address"
				}
			],
			"name": "DeedGranted",
			"type": "event"
		},
		{
			"anonymous": false,
			"inputs": [
				{
					"indexed": false,
					"internalType": "uint256",
					"name": "landId",
					"type": "uint256"
				},
				{
					"indexed": false,
					"internalType": "string",
					"name": "location",
					"type": "string"
				},
				{
					"indexed": false,
					"internalType": "uint256",
					"name": "area",
					"type": "uint256"
				},
				{
					"indexed": false,
					"internalType": "address",
					"name": "owner",
					"type": "address"
				}
			],
			"name": "LandRegistered",
			"type": "event"
		},
		{
			"anonymous": false,
			"inputs": [
				{
					"indexed": false,
					"internalType": "uint256",
					"name": "landId",
					"type": "uint256"
				},
				{
					"indexed": false,
					"internalType": "bool",
					"name": "verified",
					"type": "bool"
				}
			],
			"name": "LandVerified",
			"type": "event"
		},
		{
			"inputs": [],
			"name": "landCount",
			"outputs": [
				{
					"internalType": "uint256",
					"name": "",
					"type": "uint256"
				}
			],
			"stateMutability": "view",
			"type": "function",
			"constant": true
		},
		{
			"inputs": [
				{
					"internalType": "uint256",
					"name": "",
					"type": "uint256"
				}
			],
			"name": "lands",
			"outputs": [
				{
					"internalType": "string",
					"name": "location",
					"type": "string"
				},
				{
					"internalType": "uint256",
					"name": "area",
					"type": "uint256"
				},
				{
					"internalType": "address",
					"name": "owner",
					"type": "address"
				},
				{
					"internalType": "bool",
					"name": "verified",
					"type": "bool"
				}
			],
			"stateMutability": "view",
			"type": "function",
			"constant": true
		},
		{
			"inputs": [
				{
					"internalType": "string",
					"name": "location",
					"type": "string"
				},
				{
					"internalType": "uint256",
					"name": "area",
					"type": "uint256"
				}
			],
			"name": "registerLand",
			"outputs": [],
			"stateMutability": "nonpayable",
			"type": "function"
		},
		{
			"inputs": [
				{
					"internalType": "uint256",
					"name": "landId",
					"type": "uint256"
				}
			],
			"name": "getLandInfo",
			"outputs": [
				{
					"internalType": "string",
					"name": "",
					"type": "string"
				},
				{
					"internalType": "uint256",
					"name": "",
					"type": "uint256"
				},
				{
					"internalType": "address",
					"name": "",
					"type": "address"
				},
				{
					"internalType": "bool",
					"name": "",
					"type": "bool"
				}
			],
			"stateMutability": "view",
			"type": "function",
			"constant": true
		},
		{
			"inputs": [
				{
					"internalType": "uint256",
					"name": "landId",
					"type": "uint256"
				},
				{
					"internalType": "address",
					"name": "newOwner",
					"type": "address"
				}
			],
			"name": "grantDeed",
			"outputs": [],
			"stateMutability": "nonpayable",
			"type": "function"
		},
		{
			"inputs": [
				{
					"internalType": "uint256",
					"name": "landId",
					"type": "uint256"
				}
			],
			"name": "verifyLand",
			"outputs": [],
			"stateMutability": "nonpayable",
			"type": "function"
		}
	],
	"bytecode": "0x608060405234801561001057600080fd5b50610ee5806100206000396000f3fe608060405234801561001057600080fd5b50600436106100625760003560e01c80636f6f9bef146100675780637c83dd921461009a578063ce924ed9146100b6578063d7bce658146100d2578063e261f1e5146100f0578063f9c43bdf14610123575b600080fd5b610081600480360381019061007c919061069e565b61013f565b60405161009194939291906107c6565b60405180910390f35b6100b460048036038101906100af919061083e565b610297565b005b6100d060048036038101906100cb91906109b3565b6103cb565b005b6100da6104fe565b6040516100e79190610a0f565b60405180910390f35b61010a6004803603810190610105919061069e565b610504565b60405161011a94939291906107c6565b60405180910390f35b61013d6004803603810190610138919061069e565b6105e9565b005b606060008060008060008087815260200190815260200160002060405180608001604052908160008201805461017490610a59565b80601f01602080910402602001604051908101604052809291908181526020018280546101a090610a59565b80156101ed5780601f106101c2576101008083540402835291602001916101ed565b820191906000526020600020905b8154815290600101906020018083116101d057829003601f168201915b50505050508152602001600182015481526020016002820160009054906101000a900473ffffffffffffffffffffffffffffffffffffffff1673ffffffffffffffffffffffffffffffffffffffff1673ffffffffffffffffffffffffffffffffffffffff1681526020016002820160149054906101000a900460ff161515151581525050905080600001518160200151826040015183606001519450945094509450509193509193565b3373ffffffffffffffffffffffffffffffffffffffff1660008084815260200190815260200160002060020160009054906101000a900473ffffffffffffffffffffffffffffffffffffffff1673ffffffffffffffffffffffffffffffffffffffff161461033a576040517f08c379a000000000000000000000000000000000000000000000000000000000815260040161033190610afc565b60405180910390fd5b8060008084815260200190815260200160002060020160006101000a81548173ffffffffffffffffffffffffffffffffffffffff021916908373ffffffffffffffffffffffffffffffffffffffff1602179055507fcc7769eba17328cb208e9eaa348416729339f2a5f0a5661d2859856909d286c382826040516103bf929190610b1c565b60405180910390a15050565b600160008154809291906103de90610b74565b919050555060405180608001604052808381526020018281526020013373ffffffffffffffffffffffffffffffffffffffff16815260200160001515815250600080600154815260200190815260200160002060008201518160000190816104469190610d68565b506020820151816001015560408201518160020160006101000a81548173ffffffffffffffffffffffffffffffffffffffff021916908373ffffffffffffffffffffffffffffffffffffffff16021790555060608201518160020160146101000a81548160ff0219169083151502179055509050507f53a976a9b9d61df3bb2e08e33448938aea67fb03572279eb18ed48cdd6fad04e6001548383336040516104f29493929190610e3a565b60405180910390a15050565b60015481565b600060205280600052604060002060009150905080600001805461052790610a59565b80601f016020809104026020016040519081016040528092919081815260200182805461055390610a59565b80156105a05780601f10610575576101008083540402835291602001916105a0565b820191906000526020600020905b81548152906001019060200180831161058357829003601f168201915b5050505050908060010154908060020160009054906101000a900473ffffffffffffffffffffffffffffffffffffffff16908060020160149054906101000a900460ff16905084565b600160008083815260200190815260200160002060020160146101000a81548160ff0219169083151502179055507f844a797c747d332e0cacaf14bbcc3c6b2f03b904c69b7ded23f3115305a39089816001604051610649929190610e86565b60405180910390a150565b6000604051905090565b600080fd5b600080fd5b6000819050919050565b61067b81610668565b811461068657600080fd5b50565b60008135905061069881610672565b92915050565b6000602082840312156106b4576106b361065e565b5b60006106c284828501610689565b91505092915050565b600081519050919050565b600082825260208201905092915050565b60005b838110156107055780820151818401526020810190506106ea565b60008484015250505050565b6000601f19601f8301169050919050565b600061072d826106cb565b61073781856106d6565b93506107478185602086016106e7565b61075081610711565b840191505092915050565b61076481610668565b82525050565b600073ffffffffffffffffffffffffffffffffffffffff82169050919050565b60006107958261076a565b9050919050565b6107a58161078a565b82525050565b60008115159050919050565b6107c0816107ab565b82525050565b600060808201905081810360008301526107e08187610722565b90506107ef602083018661075b565b6107fc604083018561079c565b61080960608301846107b7565b95945050505050565b61081b8161078a565b811461082657600080fd5b50565b60008135905061083881610812565b92915050565b600080604083850312156108555761085461065e565b5b600061086385828601610689565b925050602061087485828601610829565b9150509250929050565b600080fd5b600080fd5b7f4e487b7100000000000000000000000000000000000000000000000000000000600052604160045260246000fd5b6108c082610711565b810181811067ffffffffffffffff821117156108df576108de610888565b5b80604052505050565b60006108f2610654565b90506108fe82826108b7565b919050565b600067ffffffffffffffff82111561091e5761091d610888565b5b61092782610711565b9050602081019050919050565b82818337600083830152505050565b600061095661095184610903565b6108e8565b90508281526020810184848401111561097257610971610883565b5b61097d848285610934565b509392505050565b600082601f83011261099a5761099961087e565b5b81356109aa848260208601610943565b91505092915050565b600080604083850312156109ca576109c961065e565b5b600083013567ffffffffffffffff8111156109e8576109e7610663565b5b6109f485828601610985565b9250506020610a0585828601610689565b9150509250929050565b6000602082019050610a24600083018461075b565b92915050565b7f4e487b7100000000000000000000000000000000000000000000000000000000600052602260045260246000fd5b60006002820490506001821680610a7157607f821691505b602082108103610a8457610a83610a2a565b5b50919050565b7f4f6e6c7920746865206f776e65722063616e206772616e74207468652064656560008201527f6400000000000000000000000000000000000000000000000000000000000000602082015250565b6000610ae66021836106d6565b9150610af182610a8a565b604082019050919050565b60006020820190508181036000830152610b1581610ad9565b9050919050565b6000604082019050610b31600083018561075b565b610b3e602083018461079c565b9392505050565b7f4e487b7100000000000000000000000000000000000000000000000000000000600052601160045260246000fd5b6000610b7f82610668565b91507fffffffffffffffffffffffffffffffffffffffffffffffffffffffffffffffff8203610bb157610bb0610b45565b5b600182019050919050565b60008190508160005260206000209050919050565b60006020601f8301049050919050565b600082821b905092915050565b600060088302610c1e7fffffffffffffffffffffffffffffffffffffffffffffffffffffffffffffffff82610be1565b610c288683610be1565b95508019841693508086168417925050509392505050565b6000819050919050565b6000610c65610c60610c5b84610668565b610c40565b610668565b9050919050565b6000819050919050565b610c7f83610c4a565b610c93610c8b82610c6c565b848454610bee565b825550505050565b600090565b610ca8610c9b565b610cb3818484610c76565b505050565b5b81811015610cd757610ccc600082610ca0565b600181019050610cb9565b5050565b601f821115610d1c57610ced81610bbc565b610cf684610bd1565b81016020851015610d05578190505b610d19610d1185610bd1565b830182610cb8565b50505b505050565b600082821c905092915050565b6000610d3f60001984600802610d21565b1980831691505092915050565b6000610d588383610d2e565b9150826002028217905092915050565b610d71826106cb565b67ffffffffffffffff811115610d8a57610d89610888565b5b610d948254610a59565b610d9f828285610cdb565b600060209050601f831160018114610dd25760008415610dc0578287015190505b610dca8582610d4c565b865550610e32565b601f198416610de086610bbc565b60005b82811015610e0857848901518255600182019150602085019450602081019050610de3565b86831015610e255784890151610e21601f891682610d2e565b8355505b6001600288020188555050505b505050505050565b6000608082019050610e4f600083018761075b565b8181036020830152610e618186610722565b9050610e70604083018561075b565b610e7d606083018461079c565b95945050505050565b6000604082019050610e9b600083018561075b565b610ea860208301846107b7565b939250505056fea2646970667358221220fd92a913680a4af67658b26dd6a52528e7f570fafbc6eedfd72eeafc04d53a1e64736f6c63430008130033",
	"immutableReferences": {},
	"source": "// SPDX-License-Identifier: MIT\r\npragma solidity ^0.8.0;\r\n\r\ncontract LandRegistry {\r\n    struct Land {\r\n        string location;\r\n        uint256 area;\r\n        address owner;\r\n        bool verified;\r\n    }\r\n\r\n    mapping(uint256 => Land) public lands;\r\n    uint256 public landCount;\r\n\r\n    event LandRegistered(uint256 landId, string location, uint256 area, address owner);\r\n    event DeedGranted(uint256 landId, address newOwner);\r\n    event LandVerified(uint256 landId, bool verified);\r\n\r\n    function registerLand(string memory location, uint256 area) public {\r\n        landCount++;\r\n        lands[landCount] = Land(location, area, msg.sender, false);\r\n        emit LandRegistered(landCount, location, area, msg.sender);\r\n    }\r\n\r\n    function getLandInfo(uint256 landId) public view returns (string memory, uint256, address, bool) {\r\n        Land memory land = lands[landId];\r\n        return (land.location, land.area, land.owner, land.verified);\r\n    }\r\n\r\n    function grantDeed(uint256 landId, address newOwner) public {\r\n        require(lands[landId].owner == msg.sender, \"Only the owner can grant the deed\");\r\n        lands[landId].owner = newOwner;\r\n        emit DeedGranted(landId, newOwner);\r\n    }\r\n\r\n    function verifyLand(uint256 landId) public {\r\n        lands[landId].verified = true;\r\n        emit LandVerified(landId, true);\r\n    }\r\n}\r\n",
	"sourcePath": "C:\\Users\\Jupiter\\land-registry\\contracts\\LandRegistry.sol",
	"compiler": {
		"name": "solc",
		"version": "0.8.19+commit.7dd6d404.Emscripten.clang"
	},
	"schemaVersion": "3.4.16",
	"updatedAt": "2024-05-22T21:01:45.535Z",
	"networkType": "ethereum",
	"devdoc": {
		"kind": "dev",
		"methods": {},
		"version": 1
	},
	"userdoc": {
		"kind": "user",
		"methods": {},
		"version": 1
	}
}